{
  "_format": "hh-sol-artifact-1",
  "contractName": "BJ",
  "sourceName": "contracts/BJ.sol",
  "abi": [
    {
      "inputs": [],
      "stateMutability": "nonpayable",
      "type": "constructor"
    },
    {
      "inputs": [],
      "name": "entrance",
      "outputs": [],
      "stateMutability": "payable",
      "type": "function"
    },
    {
      "inputs": [],
      "name": "owner",
      "outputs": [
        {
          "internalType": "address",
          "name": "",
          "type": "address"
        }
      ],
      "stateMutability": "view",
      "type": "function"
    }
  ],
  "bytecode": "0x6080604052670de0b6b3a764000060005534801561001c57600080fd5b5033600260006101000a81548173ffffffffffffffffffffffffffffffffffffffff021916908373ffffffffffffffffffffffffffffffffffffffff16021790555061018f8061006d6000396000f3fe6080604052600436106100295760003560e01c8063442816921461002e5780638da5cb5b14610038575b600080fd5b610036610063565b005b34801561004457600080fd5b5061004d6100d7565b60405161005a919061013e565b60405180910390f35b60005434101561007257600080fd5b6001339080600181540180825580915050600190039060005260206000200160009091909190916101000a81548173ffffffffffffffffffffffffffffffffffffffff021916908373ffffffffffffffffffffffffffffffffffffffff160217905550565b600260009054906101000a900473ffffffffffffffffffffffffffffffffffffffff1681565b600073ffffffffffffffffffffffffffffffffffffffff82169050919050565b6000610128826100fd565b9050919050565b6101388161011d565b82525050565b6000602082019050610153600083018461012f565b9291505056fea26469706673582212207f9d9a648ae2f86ea647e67a0455711f7091514afe762401f4acf32868e9eabf64736f6c63430008120033",
  "linkReferences": {},
  "deployedLinkReferences": {}
}